{
  "contractName": "FaucetContract",
  "abi": [
    {
      "inputs": [],
      "stateMutability": "nonpayable",
      "type": "constructor"
    },
    {
      "inputs": [],
      "name": "numOfFAunders",
      "outputs": [
        {
          "internalType": "uint256",
          "name": "",
          "type": "uint256"
        }
      ],
      "stateMutability": "view",
      "type": "function",
      "constant": true
    },
    {
      "inputs": [],
      "name": "owner",
      "outputs": [
        {
          "internalType": "address",
          "name": "",
          "type": "address"
        }
      ],
      "stateMutability": "view",
      "type": "function",
      "constant": true
    },
    {
      "stateMutability": "payable",
      "type": "receive",
      "payable": true
    },
    {
      "inputs": [
        {
          "internalType": "address",
          "name": "newOwner",
          "type": "address"
        }
      ],
      "name": "transferThePower",
      "outputs": [],
      "stateMutability": "nonpayable",
      "type": "function"
    },
    {
      "inputs": [],
      "name": "addFunds",
      "outputs": [],
      "stateMutability": "payable",
      "type": "function",
      "payable": true
    },
    {
      "inputs": [
        {
          "internalType": "uint256",
          "name": "withdrawAmount",
          "type": "uint256"
        }
      ],
      "name": "withdraw",
      "outputs": [],
      "stateMutability": "nonpayable",
      "type": "function"
    },
    {
      "inputs": [],
      "name": "getAllFunders",
      "outputs": [
        {
          "internalType": "address[]",
          "name": "",
          "type": "address[]"
        }
      ],
      "stateMutability": "view",
      "type": "function",
      "constant": true
    },
    {
      "inputs": [
        {
          "internalType": "uint8",
          "name": "index",
          "type": "uint8"
        }
      ],
      "name": "getFunderAtIndex",
      "outputs": [
        {
          "internalType": "address",
          "name": "",
          "type": "address"
        }
      ],
      "stateMutability": "view",
      "type": "function",
      "constant": true
    }
  ],
  "bytecode": "0x608060405234801561001057600080fd5b5033600360006101000a81548173ffffffffffffffffffffffffffffffffffffffff021916908373ffffffffffffffffffffffffffffffffffffffff160217905550610a0c806100616000396000f3fe6080604052600436106100745760003560e01c80636fbbb55d1161004e5780636fbbb55d146101115780638da5cb5b1461013c578063a26759cb14610167578063f076b519146101715761007b565b80630a93cf33146100805780632e1a7d4d146100bd578063505a3072146100e65761007b565b3661007b57005b600080fd5b34801561008c57600080fd5b506100a760048036038101906100a29190610664565b61019a565b6040516100b49190610776565b60405180910390f35b3480156100c957600080fd5b506100e460048036038101906100df919061063b565b6101da565b005b3480156100f257600080fd5b506100fb610270565b60405161010891906107f3565b60405180910390f35b34801561011d57600080fd5b50610126610276565b6040516101339190610791565b60405180910390f35b34801561014857600080fd5b506101516103bb565b60405161015e9190610776565b60405180910390f35b61016f6103e1565b005b34801561017d57600080fd5b5061019860048036038101906101939190610612565b6104ff565b005b6000600260008360ff16815260200190815260200160002060009054906101000a900473ffffffffffffffffffffffffffffffffffffffff169050919050565b80670de0b6b3a76400008110610225576040517f08c379a000000000000000000000000000000000000000000000000000000000815260040161021c906107d3565b60405180910390fd5b3373ffffffffffffffffffffffffffffffffffffffff166108fc839081150290604051600060405180830381858888f1935050505015801561026b573d6000803e3d6000fd5b505050565b60005481565b60606000805467ffffffffffffffff8111156102bb577f4e487b7100000000000000000000000000000000000000000000000000000000600052604160045260246000fd5b6040519080825280602002602001820160405280156102e95781602001602082028036833780820191505090505b50905060005b6000548110156103b3576002600082815260200190815260200160002060009054906101000a900473ffffffffffffffffffffffffffffffffffffffff16828281518110610366577f4e487b7100000000000000000000000000000000000000000000000000000000600052603260045260246000fd5b602002602001019073ffffffffffffffffffffffffffffffffffffffff16908173ffffffffffffffffffffffffffffffffffffffff168152505080806103ab906108a1565b9150506102ef565b508091505090565b600360009054906101000a900473ffffffffffffffffffffffffffffffffffffffff1681565b6000339050600160008273ffffffffffffffffffffffffffffffffffffffff1673ffffffffffffffffffffffffffffffffffffffff16815260200190815260200160002060009054906101000a900460ff166104fc57600080600081548092919061044b906108a1565b91905055905060018060008473ffffffffffffffffffffffffffffffffffffffff1673ffffffffffffffffffffffffffffffffffffffff16815260200190815260200160002060006101000a81548160ff021916908315150217905550816002600083815260200190815260200160002060006101000a81548173ffffffffffffffffffffffffffffffffffffffff021916908373ffffffffffffffffffffffffffffffffffffffff160217905550505b50565b600360009054906101000a900473ffffffffffffffffffffffffffffffffffffffff1673ffffffffffffffffffffffffffffffffffffffff163373ffffffffffffffffffffffffffffffffffffffff161461058f576040517f08c379a0000000000000000000000000000000000000000000000000000000008152600401610586906107b3565b60405180910390fd5b80600360006101000a81548173ffffffffffffffffffffffffffffffffffffffff021916908373ffffffffffffffffffffffffffffffffffffffff16021790555050565b6000813590506105e281610991565b92915050565b6000813590506105f7816109a8565b92915050565b60008135905061060c816109bf565b92915050565b60006020828403121561062457600080fd5b6000610632848285016105d3565b91505092915050565b60006020828403121561064d57600080fd5b600061065b848285016105e8565b91505092915050565b60006020828403121561067657600080fd5b6000610684848285016105fd565b91505092915050565b600061069983836106a5565b60208301905092915050565b6106ae81610858565b82525050565b6106bd81610858565b82525050565b60006106ce8261081e565b6106d88185610836565b93506106e38361080e565b8060005b838110156107145781516106fb888261068d565b975061070683610829565b9250506001810190506106e7565b5085935050505092915050565b600061072e602283610847565b915061073982610919565b604082019050919050565b6000610751601283610847565b915061075c82610968565b602082019050919050565b6107708161088a565b82525050565b600060208201905061078b60008301846106b4565b92915050565b600060208201905081810360008301526107ab81846106c3565b905092915050565b600060208201905081810360008301526107cc81610721565b9050919050565b600060208201905081810360008301526107ec81610744565b9050919050565b60006020820190506108086000830184610767565b92915050565b6000819050602082019050919050565b600081519050919050565b6000602082019050919050565b600082825260208201905092915050565b600082825260208201905092915050565b60006108638261086a565b9050919050565b600073ffffffffffffffffffffffffffffffffffffffff82169050919050565b6000819050919050565b600060ff82169050919050565b60006108ac8261088a565b91507fffffffffffffffffffffffffffffffffffffffffffffffffffffffffffffffff8214156108df576108de6108ea565b5b600182019050919050565b7f4e487b7100000000000000000000000000000000000000000000000000000000600052601160045260246000fd5b7f4e6f70652c20796f75277265206e6f742045544820544f27532043454f21212160008201527f2121000000000000000000000000000000000000000000000000000000000000602082015250565b7f4e6f70652c20746f6f206d7563682062726f0000000000000000000000000000600082015250565b61099a81610858565b81146109a557600080fd5b50565b6109b18161088a565b81146109bc57600080fd5b50565b6109c881610894565b81146109d357600080fd5b5056fea2646970667358221220508d6a11e2eb53b7424316e00e4c5c1f251eb5e18632a6eaadf88941cdfe622964736f6c63430008040033",
  "immutableReferences": {},
  "source": "// SPDX-License-Identifier: MIT\npragma solidity >=0.4.22 <0.9.0;\n\nimport \"./IFaucet.sol\";\n\ncontract FaucetContract is IFacuet {\n    \n    uint public numOfFAunders;\n    mapping (address => bool) private funders;\n    mapping (uint => address) private lutFunders;\n    address public owner;\n\n    constructor() {\n        owner = msg.sender;\n    }\n\n    modifier OnlyOwner{\n        require(msg.sender == owner, \"Nope, you're not ETH TO'S CEO!!!!!\"); _;\n    }\n\n    //Ready for mr.Tambussi\n    function transferThePower(address newOwner) public OnlyOwner {\n        owner = newOwner;\n    }\n\n    modifier LimitWithdraw(uint  withdrawAmount){\n         require\n         (withdrawAmount < 1000000000000000000,\n          \"Nope, too much bro\");\n          _;\n    }\n\n    //DEPOSIT\n    function addFunds() override  public payable {\n        address funder = msg.sender;\n\n        if(!funders[funder]){\n            uint index = numOfFAunders++;\n            funders[funder] = true;\n            lutFunders[index] = funder;\n        }\n    }\n\n\n    //WITHDRAW\n    function withdraw(uint withdrawAmount) override  external LimitWithdraw(withdrawAmount) {\n         payable(msg.sender).transfer(withdrawAmount);\n    }\n\n    // function getAllFunders() internal view returns (address[] memory) {\n    //     return funders;\n    // }\n    function getAllFunders () external view returns(address[] memory) {\n        address[] memory _funders = new address[](numOfFAunders);\n\n        for(uint i = 0; i < numOfFAunders; i++){\n            _funders[i] = lutFunders[i];\n        }\n        return _funders;\n    }\n\n    function getFunderAtIndex(uint8 index) external view returns(address) {\n        return lutFunders[index];\n    }\n\nreceive() external payable{}\n}\n\n\n// let instance = await FaucetContract.deployed();\n// instance.addFunds({from:accounts[0], value:\"1000000000000000000\"})\n// instance.addFunds({from:accounts[1], value:\"1000000000000000000\"})\n// instance.addFunds({from:accounts[2], value:\"1000000000000000000\"})\n// instance.getFunderAtIndex(1);\n// instance.withdraw(\"5000000000000000000\", {from: accounts[1]})\n\n",
  "sourcePath": "/Users/wzrd/Faucet/contracts/FaucetContract.sol",
  "compiler": {
    "name": "solc",
    "version": "0.8.4+commit.c7e474f2.Emscripten.clang"
  },
  "schemaVersion": "3.4.3",
  "updatedAt": "2021-10-10T20:08:31.648Z",
  "networkType": "ethereum",
  "devdoc": {
    "kind": "dev",
    "methods": {},
    "version": 1
  },
  "userdoc": {
    "kind": "user",
    "methods": {},
    "version": 1
  }
}